:020000040800F2
:100000008007002029020008850A0008BF090008AF
:10001000810A0008190300084F0F000800000000C3
:10002000000000000000000000000000790B000844
:100030001D03000800000000150B0008D10C00088B
:10004000430200084302000843020008430200087C
:10005000430200084302000821030008810700084A
:10006000430200084302000843020008430200085C
:10007000430200084302000843020008430200084C
:10008000430200084302000843020008430200083C
:10009000430200084302000843020008430200082C
:1000A000430200084302000843020008430200081C
:1000B000430200083D0D0008430200084302000807
:1000C00043020008430200084302000843020008FC
:1000D00043020008690E00084302000843020008BA
:1000E00043020008430200084302000843020008DC
:1000F00043020008430200084302000843020008CC
:1001000043020008430200084302000843020008BB
:1001100043020008430200084302000843020008AB
:10012000430200084302000843020008430200089B
:10013000430200084302000843020008430200088B
:10014000430200084302000843020008430200087B
:10015000430200084302000843020008430200086B
:10016000430200084302000843020008430200085B
:10017000430200084302000843020008430200084B
:10018000430200084302000800F002F800F03CF8C7
:100190000AA090E8000C82448344AAF10107DA45E2
:1001A00001D100F031F8AFF2090EBAE80F0013F0F8
:1001B000010F18BFFB1A43F001031847D4100000C9
:1001C000F4100000103A24BF78C878C1FAD852075A
:1001D00024BF30C830C144BF04680C6070470000C1
:1001E0000023002400250026103A28BF78C1FBD840
:1001F000520728BF30C148BF0B6070471FB501F0E0
:1002000041F81FBD10B510BD00F033F81146FFF7DF
:10021000F5FF00F0BFFE00F051F803B4FFF7F2FF66
:1002200003BC00F096FE00000948804709480047DB
:10023000FEE7FEE7FEE7FEE7FEE7FEE7FEE7FEE796
:10024000FEE7FEE704480549054A064B70470000F3
:10025000D50C0008890100088001002080070020DB
:10026000800300208003002070477047704770476C
:100270007047754600F02CF8AE46050069465346B7
:1002800020F00700854618B020B5FFF7DBFFBDE87A
:1002900020404FF000064FF000074FF000084FF0ED
:1002A000000B21F00701AC46ACE8C009ACE8C0097E
:1002B000ACE8C009ACE8C0098D46704710B50446EB
:1002C000AFF300802046BDE81040FFF7A6BF000056
:1002D00000487047200100201CB50121084600F0AD
:1002E0001BFC4FF48070009001208DF8040000206A
:1002F0008DF8060003208DF8050001208DF8070019
:100300006946044800F006FB4FF48071014800F094
:1003100052FB1CBD0000024000BFFEE7704700001A
:1003200010B50121F84800F03DFB002870D14FF4D2
:100330008071F64800F036FB78BBF548006801286C
:1003400010D1F4480068012805D1F349F04A126839
:1003500041F822000DE00120F049ED4A126841F811
:10036000220006E0EA480068012802DD0120EB498E
:100370004860EB480068012802DAE948006800E0BC
:100380000120E7490860E7480068012801DA0120F8
:1003900001E0E4480068E34908604FF40071DB487D
:1003A00000F000FB98BBDA480068022810D1D94859
:1003B0000068012805D1D849D54A126841F82200C1
:1003C00015E00120D549D24A126841F822000EE01A
:1003D000CF480068022803DD0120D049886006E08C
:1003E000CB480068022802DA0120CB498860CC485B
:1003F0000068022802DACA48006800E00220C84902
:100400000860C8480068022803DA022003E004E01C
:10041000AAE1C4480068C34908604FF48061BB4842
:1004200000F0C0FAA0BBBA480068032811D1B9484F
:100430000068012806D10121B748B54A126840F882
:10044000221015E00121B548B14A126840F8221087
:100450000EE0AF480068032803DD0120AF49C86003
:1004600006E0AB480068032802DA0120AA49C86008
:10047000AB480068032802DAA948006800E00320BE
:10048000A7490860A7480068032802DA032002E0B1
:1004900003E0A4480068A34908604FF400619B484A
:1004A00000F080FA98BB9A480068042810D1994857
:1004B0000068012805D19849954A126841F8220040
:1004C00015E001219548924A126840F822100EE08A
:1004D0008F480068042803DD01209049086106E088
:1004E0008B480068042802DA01208B4908618C4897
:1004F0000068042802DA8A48006800E0042088497D
:10050000086088480068042802DA042002E003E05A
:1005100084480068834908604FF480517B4800F0AC
:1005200041FA80BB7A480068052811D179480068F3
:10053000012806D101217848754A126840F8221036
:100540000DE001217548724A126840F8221006E059
:100550006F480068052802DA01206F494861704839
:100560000068052802DA6E48006800E005206C4942
:1005700008606C480068052801DA052001E0694838
:100580000068684908600121604800F00BFAB0B9C2
:1005900001206149486062480068012802DA604829
:1005A000006800E001205E4908605E48006801289C
:1005B00001DA012001E05B4800685A490860022125
:1005C000524800F0EFF9B0B901205349886054480F
:1005D0000068022802DA5248006800E00220504910
:1005E000086050480068022801DA022001E04D4806
:1005F00000684C4908600421444800F0D3F9B0B9C0
:1006000001204549C86046480068032802DA44488A
:10061000006800E00320424908604248006803285F
:1006200001DA032001E03F4800683E4908600821E4
:10063000364800F0B7F9B0B90120374908613848A9
:100640000068042802DA3648006800E004203449D3
:10065000086034480068042801DA042001E03148C9
:100660000068304908601021284800F09BF9B0B9B3
:1006700001202A4988602A480068022802DA2848AE
:10068000006800E002202649086026480068022829
:1006900001DA022001E02348006822490860202195
:1006A0001A4800F07FF9B0B901201C49C8601C4805
:1006B0000068032802DA1A48006800E0032018499D
:1006C000086018480068032801DA032001E0154893
:1006D00000681449086040210C4800F063F990B9A3
:1006E00001200E4908610E480068042802DA0C480F
:1006F000006800E004200A4908600A4800680428ED
:1007000012DA042012E013E000100240000C024054
:100710000C000020100000202800002040000020D5
:100720000400002000000020114800681049086003
:100730008021104800F036F9B0B901200E49486117
:100740000E480068052802DA0C48006800E0052021
:100750000A49086006480068052801DA052001E01A
:100760000348006802490860012000F083F810BDCA
:1007700000000020000C0240400000200400002087
:1007800010B519480068A8B9002018490860012070
:100790001749C1F8A0021748006820F00100154968
:1007A000086000220121144800F013FB01200E49CB
:1007B000086014E001200D49086000200C49C1F8D0
:1007C000A0020C48006840F001000A4908600122BC
:1007D0001146094800F0FDFA002003490860022094
:1007E00000F048F810BD0000180000209C024042B4
:1007F00000004042003C0140000400400EB500F003
:10080000E1F80121880300F0A7F90021042000F09D
:10081000B5F90121042000F0B1F903200090002077
:100820008DF804000C208DF8050001208DF80600DD
:10083000684600F025F806208DF8080001208DF8A4
:10084000090000208DF80A0001208DF80B0002A895
:1008500000F01AF907208DF8080000208DF8090033
:100860008DF80A0001208DF80B0002A800F00CF9A9
:100870000EBD00000149086070470000143C0140B3
:10088000002123498279002A3AD00A461268036877
:100890009A430B461A600A1D126803689A430B1D9F
:1008A0001A60027911440A6803681A430A60184AF8
:1008B0000832126803689A43154B08331A601A1DF0
:1008C000126803689A43124B0C331A604279102A5B
:1008D0000ED11A1F126803681A430D4B08331A60B1
:1008E0001A1D126803681A43094B0C331A600DE095
:1008F0000749427911440A6803681A430A6005E00F
:10090000027911440A6803689A430A60704700003C
:10091000003C0140F0B50A4600210023002400BF3E
:100920003DE0012505FA01F3156805EA03049C4240
:1009300034D105684F000326BE40B54305601579E4
:100940004E00B5400668354305601579012D02D08B
:100950001579022D16D185684F000326BE40B54398
:10096000856055794E00B540866835438560456899
:1009700001268E40B5434560456896798E40B6B2F3
:1009800035434560C5684F000326BE40B543C5608A
:10099000D5794E00B540C6683543C560491C10295D
:1009A000BFD3F0BD0246002013690B400BB10120FC
:1009B00000E000207047418370470183704700BF0B
:1009C000FEE700001CB50121082000F0A5F841F663
:1009D000FF70009000208DF8040003208DF80500C2
:1009E00001208DF8070069460B48FFF793FF0121AE
:1009F000102000F091F80320009000208DF80400F2
:100A000003208DF8050001208DF807006946034892
:100A1000FFF780FF1CBD0000000C024000100240E8
:100A20001CB50121084600F077F848F2806000907C
:100A300001208DF8040000208DF8060003208DF8B9
:100A4000050001208DF8070069460C48FFF762FF9A
:100A500048F280610948FFF7B0FF4FF4F040009082
:100A600002208DF8070069460448FFF753FF4FF452
:100A700000610248FFF7A1FF1CBD0000000002401A
:100A800000BFFEE77047000070B5002100230F2271
:100A9000C4781CB3174C246804F4E064C4F5E06423
:100AA000C4F30721C1F10404E3B20A4144789C4035
:100AB000E1B28478144021430C07210E0E4C0578D6
:100AC0006155047804F01F050124AC4005786D11D0
:100AD000AD0005F1E025C5F8004109E0047804F017
:100AE0001F050124AC40054D0678761145F82640D7
:100AF00070BD00000CED00E000E400E080E100E0EB
:100B000002490143024A1160704700000000FA05E3
:100B10000CED00E07047000029B1064A126802435C
:100B2000044B1A6004E0034A12688243014B1A60C6
:100B3000704700003038024029B1064A126802436B
:100B4000044B1A6004E0034A12688243014B1A60A6
:100B5000704700004038024029B1064A126802433B
:100B6000044B1A6004E0034A12688243014B1A6086
:100B700070470000443802407047000030B5002242
:100B80008B071C0F0F2303FA04F20B4B8C1053F846
:100B900024309343084C8D1044F8253023468C10A4
:100BA00053F824308C07240F00FA04F42343024C3A
:100BB0008D1044F8253030BD083801400CB50020B8
:100BC000019000903448006840F480303249086059
:100BD00000BF3148006800F4003000900198401CCC
:100BE0000190009818B90198B0F5A04FF1D12A48AA
:100BF000006800F4003010B10120009001E00020F6
:100C000000900098012846D123484030006840F009
:100C100080502149403108602048006840F440403D
:100C20001E4908601C48083000681B4908310860EC
:100C30000846006840F4004008600846006840F438
:100C4000A05008601648091F0860081F006840F09F
:100C50008070091F086000BF0F48006800F0007036
:100C60000028F9D040F205700E4908600A480830A3
:100C7000006820F003000849083108600846006851
:100C800040F00200086000BF03480830006800F030
:100C90000C000828F8D10CBD00380240007000405C
:100CA00008544007003C0240042808D14FF0E021DE
:100CB000096941F004014FF0E022116107E04FF0B3
:100CC000E021096921F004014FF0E0221161704731
:100CD0007047000010B51548006840F470001349D3
:100CE00008601348006840F00100114908600020C6
:100CF0000F49083108600E4800680E4908400C4949
:100D000008600D48091D0860081F006820F4802055
:100D1000091F0860002006490C310860FFF74EFFEC
:100D20004FF0006001498039086010BD88ED00E097
:100D300000380240FFFFF6FE1030002410B50120FD
:100D4000034908600121034800F034F810BD000099
:100D500014000020000400407FB505460C46012128
:100D60000220FFF7E9FE0295ADF804400020ADF83F
:100D70000600ADF80C0001A90D4800F033F801227F
:100D800011460B4800F025F80121094800F015F83C
:100D90001D208DF8000002208DF8010000208DF844
:100DA000020001208DF803006846FFF76DFE7FBD4D
:100DB00000040040CA430282704721B1028842F019
:100DC0000102028004E002884FF6FE731A4002809E
:100DD00070471AB183890B43838102E083898B4377
:100DE0008381704700220288184B98420ED0184B1E
:100DF00098420BD0B0F1804F08D0164B984205D0E6
:100E0000154B984202D0154B984204D14FF68F7380
:100E10001A404B881A43124B984207D0114B984204
:100E200004D04FF6FF431A400B891A4302804B68E7
:100E3000C3620B880385054B984202D0044B98424D
:100E400001D18B7A03860123838270470000014021
:100E5000000401400004004000080040000C004075
:100E6000001000400014004010B540F225511D480C
:100E700000F03EF810B31B4800F064F8C4B21A4802
:100E8000008800F40040C8B91748008800F480408A
:100E900060B10A2C03D000201349088020E01248DA
:100EA000008840F400401049088019E00D2C06D15C
:100EB0000D48008840F480400B49088010E00A4843
:100EC0000088C0F30D0009490C5407480088401CF5
:100ED0000549088008460088C72801DD00200880F1
:100EE00010BD000000100140240000205800002028
:100EF00070B50246002400230025002040F66A1643
:100F0000B14200D100BFC1F3421501F01F03012619
:100F100006FA03F3012D02D19689334006E0022D33
:100F200002D1168A334001E0968A33400C12012622
:100F300006FA04F41688344013B10CB1012000E025
:100F4000002070BD01468888C0F30800704700BFCC
:100F5000FEE700BF7047000010B504466FF00400C4
:100F6000FFF7A2FEE11704EB5171C1F3C701074A75
:100F700011701046007800EB4001C1EBC0104FF635
:100F8000FF7101EAC0000249088010BD1C0000206A
:100F90001E0000204FF4A060FFF7B2FDA820FFF76D
:100FA000DBFFFFF73DFDFFF797F9FFF70BFDFFF7BD
:100FB00025FC42F2CF0140F28330FFF7CDFE002046
:100FC0009C49086001209C49C1F8A8029949183140
:100FD00008609849083908600020091D086027E169
:100FE0009648006801287DD19548006820B1012805
:100FF00079D0022878D1EFE09248006801285DD1CD
:1010000091489249096850F82100002850D18F4832
:1010100000688F490968884220DA8C4800688D4949
:101020000968884210D101240CE0874850F8240058
:10103000012804D0884850F82400012801D18548AF
:101040000460641C052CF0DD01207D4908607949AD
:10105000086000207849C1F8A8022FE07B480068AA
:101060007B490968884229D179480068794909682B
:10107000884223DD05240CE0734850F82400012841
:1010800004D0754850F82400012801D1704804604C
:10109000641E012CF0DA01206649086000206649D0
:1010A000C1F8BC020220664908606649086005E094
:1010B00000206549654A126841F8220061480068CD
:1010C000022862D164486149096850F8210000286B
:1010D00055D15E4800685F490968884225DD5B4854
:1010E000006802E0A3E051E09DE0594909688842A8
:1010F00010D105240CE0544850F82400012804D0F5
:10110000554850F82400012801D151480460641E5C
:10111000012CF0DA02204A490860012045490860A4
:1011200000204549C1F8BC022FE048480068494901
:101130000968884229D147480068454909688842BA
:1011400023DA01240CE0404850F82400012804D0A0
:10115000414850F82400012801D13E480460641C35
:10116000052CF0DD01203349086000203249C1F828
:10117000A8020120324908603249086005E00121D7
:101180003548324A126840F822104CE02F48006877
:10119000401C2E4908600846006800F05FF82A48A5
:1011A0002A49096850F82100012805D0274800681D
:1011B0002749096888420ED100202349234A126832
:1011C00041F822001B49086001201B49C1F8A80210
:1011D00000201B49086026E01C480068401E1B498F
:1011E00008600846006800F039F81B48174909688C
:1011F00050F82100012805D01448006815490968F5
:1012000088420FD100211448104A126840F8221079
:1012100000200849086001200749C1F8BC020020ED
:101220000749086000BF00BF00200449086000BFF4
:10123000D6E60000A4024042000040421400002014
:101240000800002010000020280000200C000020D2
:101250000000002004000020400000204FF4F04176
:10126000074A51830146C21700EB12721211A0EB1C
:1012700002104FF6FF7101EAC021014A1183704745
:10128000000002404FF04070E1EE100A704700008D
:10129000B01200080000002028000000C40100086F
:1012A000D81200082800002058070000E0010008BC
:1012B0000100000005000000000000000100000027
:1012C000010000000000000000000000000000001D
:0812D000000000000000000016
:040000050800018965
:00000001FF
