:020000040800F2
:10000000380700202902000821050008C90300085C
:100010001D05000819030008AF07000800000000D4
:10002000000000000000000000000000450500087E
:100030001D03000800000000230500085D060008FD
:10004000430200084302000843020008430200087C
:10005000430200084302000843020008430200086C
:10006000430200084302000843020008430200085C
:10007000430200084302000843020008430200084C
:10008000430200084302000843020008430200083C
:10009000430200084302000843020008430200082C
:1000A000430200084302000843020008430200081C
:1000B000430200084302000843020008430200080C
:1000C00043020008430200084302000843020008FC
:1000D00043020008C9060008430200084302000862
:1000E00043020008430200084302000843020008DC
:1000F00043020008430200084302000843020008CC
:1001000043020008430200084302000843020008BB
:1001100043020008430200084302000843020008AB
:10012000430200084302000843020008430200089B
:10013000430200084302000843020008430200088B
:10014000430200084302000843020008430200087B
:10015000430200084302000843020008430200086B
:10016000430200084302000843020008430200085B
:10017000430200084302000843020008430200084B
:10018000430200084302000800F002F800F03CF8C7
:100190000AA090E8000C82448344AAF10107DA45E2
:1001A00001D100F031F8AFF2090EBAE80F0013F0F8
:1001B000010F18BFFB1A43F0010318476C0700003A
:1001C0008C070000103A24BF78C878C1FAD85207CB
:1001D00024BF30C830C144BF04680C6070470000C1
:1001E0000023002400250026103A28BF78C1FBD840
:1001F000520728BF30C148BF0B6070471FB500F0E1
:100200008DFB1FBD10B510BD00F033F81146FFF790
:10021000F5FF00F031FB00F051F803B4FFF7F2FFF7
:1002200003BC00F0C6FA00000948804709480047AF
:10023000FEE7FEE7FEE7FEE7FEE7FEE7FEE7FEE796
:10024000FEE7FEE704480549054A064B70470000F3
:1002500061060008890100083801002038070020E5
:1002600038030020380300207047704770477047FC
:100270007047754600F02CF8AE46050069465346B7
:1002800020F00700854618B020B5FFF7DBFFBDE87A
:1002900020404FF000064FF000074FF000084FF0ED
:1002A000000B21F00701AC46ACE8C009ACE8C0097E
:1002B000ACE8C009ACE8C0098D46704710B50446EB
:1002C000AFF300802046BDE81040FFF7A6BF000056
:1002D00000487047D80000201CB50121084600F0F6
:1002E00021F94FF48070009001208DF80400002067
:1002F0008DF8060003208DF8050001208DF8070019
:100300006946044800F00BF84FF48071014800F092
:1003100057F81CBD0000024000BFFEE77047F0B573
:100320000A4600210023002400BF3DE0012505FA14
:1003300001F3156805EA03049C4234D105684F00B7
:100340000326BE40B543056015794E00B5400668EA
:10035000354305601579012D02D01579022D16D18E
:1003600085684F000326BE40B543856055794E0031
:10037000B540866835438560456801268E40B543A3
:100380004560456896798E40B6B235434560C5688C
:100390004F000326BE40B543C560D5794E00B54039
:1003A000C6683543C560491C1029BFD3F0BD02465D
:1003B000002013690B400BB1012000E000207047C2
:1003C000418370470183704700BFFEE71CB50121E0
:1003D000082000F0A7F80F20009000208DF80400FE
:1003E00003208DF8050001208DF8070069460248BA
:1003F000FFF795FF1CBD0000000C024010B504463D
:1004000014B101202B4908702A480078002835D003
:1004100001212948FFF7CBFF70B102212648FFF7E1
:10042000C6FF48B104212448FFF7C1FF20B10821CD
:100430002148FFF7BCFF08BB0A2000F0DBF90020D1
:100440001C49087001211C48FFF7B1FF08B90120C1
:1004500010BD02211848FFF7AAFF08B90220F7E7EC
:1004600004211548FFF7A3FF08B90320F0E708218E
:100470001148FFF79CFFD8B90420E9E701210E4895
:10048000FFF795FF012813D102210B48FFF78FFFDB
:1004900001280DD104210848FFF789FF012807D161
:1004A00008210548FFF783FF012801D101490870A1
:1004B0000020CDE700000020000C02401CB5012107
:1004C000084600F02FF84FF4C060009001208DF82E
:1004D000040000208DF8060003208DF8050001209F
:1004E0008DF8070069460C48FFF719FF4FF4C0610B
:1004F0000948FFF767FF4FF4F040009002208DF8A5
:10050000070069460448FFF70AFF4FF400610248FC
:10051000FFF758FF1CBD00000000024000BFFEE7CF
:100520007047704729B1064A12680243044B1A60AB
:1005300004E0034A12688243014B1A6070470000CE
:1005400030380240704700000CB500200190009048
:100550003448006840F480303249086000BF3148B8
:10056000006800F4003000900198401C0190009851
:1005700018B90198B0F5A04FF1D12A48006800F4ED
:10058000003010B10120009001E0002000900098A0
:10059000012846D123484030006840F0805021496E
:1005A000403108602048006840F440401E4908601F
:1005B0001C48083000681B4908310860084600687C
:1005C00040F4004008600846006840F4A05008600D
:1005D0001648091F0860081F006840F08070091F56
:1005E000086000BF0F48006800F000700028F9D0D4
:1005F00040F205700E4908600A480830006820F093
:1006000003000849083108600846006840F002000D
:10061000086000BF03480830006800F00C0008289C
:10062000F8D10CBD0038024000700040085440076B
:10063000003C0240042808D14FF0E021096941F054
:1006400004014FF0E022116107E04FF0E021096959
:1006500021F004014FF0E022116170477047000063
:1006600010B51548006840F470001349086013483D
:10067000006840F001001149086000200F4908316E
:1006800008600E4800680E4908400C4908600D4893
:10069000091D0860081F006820F48020091F0860F9
:1006A000002006490C310860FFF74EFF4FF0006054
:1006B00001498039086010BD88ED00E00038024033
:1006C000FFFFF6FE1030002410B540F225511D4802
:1006D00000F03EF810B31B4800F064F8C4B21A48AA
:1006E000008800F40040C8B91748008800F4804032
:1006F00060B10A2C03D000201349088020E0124882
:10070000008840F400401049088019E00D2C06D103
:100710000D48008840F480400B49088010E00A48EA
:100720000088C0F30D0009490C5407480088401C9C
:100730000549088008460088C72801DD0020088098
:1007400010BD0000001001400C000020100000202F
:1007500070B50246002400230025002040F66A16EA
:10076000B14200D100BFC1F3421501F01F030126C1
:1007700006FA03F3012D02D19689334006E0022DDB
:1007800002D1168A334001E0968A33400C120126CA
:1007900006FA04F41688344013B10CB1012000E0CD
:1007A000002070BD01468888C0F30800704700BF74
:1007B000FEE700BF7047000010B504466FF004006C
:1007C000FFF738FFE11704EB5171C1F3C701074A86
:1007D00011701046007800EB4001C1EBC0104FF6DD
:1007E000FF7101EAC0000249088010BD020000202C
:1007F0000400002070B504464FF4077094FBF0F03D
:10080000C6B24FF4077094FBF0F100FB114085B2C3
:1008100005E04FF4077000F009F8701EC6B2002E14
:10082000F7D115B1284600F001F870BD0146114A14
:1008300012884A434FF0E0235A6100229A611A4617
:10084000126942F001021A6100BF4FF0E022106904
:1008500000F001021AB100F48032002AF5D04FF006
:10086000E022126922F001024FF0E0231A61002217
:100870009A61704704000020A820FFF79DFFFFF752
:100880001DFEFFF729FDFFF7A1FD01201A490860B1
:100890001A49C1F8A80200201749091F086029E079
:1008A0000020FFF7ABFD044624B3012C06D0022C38
:1008B0000ED0032C13D0042C1BD115E0022000F025
:1008C0001FF800200C4908600C49C1F8A80210E08C
:1008D0000120094908600949C1F8A80209E001207E
:1008E0000549091F086004E000200349091F08604A
:1008F00000BF00BFD4E70000A40240420000404215
:10090000022806D10021034A11600121024AC2F8DF
:10091000B0127047AC024042000040424FF04070BD
:10092000E1EE100A704700004809000800000020AE
:1009300010000000C4010008580900081000002041
:1009400028070000E001000801000000000000008E
:0809500000000000000000009F
:040000050800018965
:00000001FF
